{
  "address": "0xe7f1725E7734CE288F8367e1Bb143E90bb3F0512",
  "abi": [
    {
      "inputs": [
        {
          "internalType": "address",
          "name": "priceFeedAddress",
          "type": "address"
        }
      ],
      "stateMutability": "nonpayable",
      "type": "constructor"
    },
    {
      "inputs": [],
      "name": "FundMe__NotOwner",
      "type": "error"
    },
    {
      "stateMutability": "payable",
      "type": "fallback"
    },
    {
      "inputs": [],
      "name": "MINIMUM_USD",
      "outputs": [
        {
          "internalType": "uint256",
          "name": "",
          "type": "uint256"
        }
      ],
      "stateMutability": "view",
      "type": "function"
    },
    {
      "inputs": [],
      "name": "cheaperWithdraw",
      "outputs": [],
      "stateMutability": "payable",
      "type": "function"
    },
    {
      "inputs": [],
      "name": "fund",
      "outputs": [],
      "stateMutability": "payable",
      "type": "function"
    },
    {
      "inputs": [
        {
          "internalType": "address",
          "name": "funder",
          "type": "address"
        }
      ],
      "name": "getAddressToAmountFunded",
      "outputs": [
        {
          "internalType": "uint256",
          "name": "",
          "type": "uint256"
        }
      ],
      "stateMutability": "view",
      "type": "function"
    },
    {
      "inputs": [
        {
          "internalType": "uint256",
          "name": "index",
          "type": "uint256"
        }
      ],
      "name": "getFunder",
      "outputs": [
        {
          "internalType": "address",
          "name": "",
          "type": "address"
        }
      ],
      "stateMutability": "view",
      "type": "function"
    },
    {
      "inputs": [],
      "name": "getOwner",
      "outputs": [
        {
          "internalType": "address",
          "name": "",
          "type": "address"
        }
      ],
      "stateMutability": "view",
      "type": "function"
    },
    {
      "inputs": [],
      "name": "getPriceFeed",
      "outputs": [
        {
          "internalType": "contract AggregatorV3Interface",
          "name": "",
          "type": "address"
        }
      ],
      "stateMutability": "view",
      "type": "function"
    },
    {
      "inputs": [],
      "name": "withdraw",
      "outputs": [],
      "stateMutability": "payable",
      "type": "function"
    },
    {
      "stateMutability": "payable",
      "type": "receive"
    }
  ],
  "transactionHash": "0xb958533fd99da7d03de44772c4fb64692d8aa928aecfaacd0197f6a245fdf610",
  "args": [
    "0x5FbDB2315678afecb367f032d93F642f64180aa3"
  ],
  "numDeployments": 1,
  "solcInputHash": "b8de28a64698f4df31122baf72d30dcc",
  "bytecode": "0x60a06040523480156200001157600080fd5b506040516200127438038062001274833981810160405281019062000037919062000120565b3373ffffffffffffffffffffffffffffffffffffffff1660808173ffffffffffffffffffffffffffffffffffffffff1660601b8152505080600260006101000a81548173ffffffffffffffffffffffffffffffffffffffff021916908373ffffffffffffffffffffffffffffffffffffffff1602179055505062000152565b600080fd5b600073ffffffffffffffffffffffffffffffffffffffff82169050919050565b6000620000e882620000bb565b9050919050565b620000fa81620000db565b81146200010657600080fd5b50565b6000815190506200011a81620000ef565b92915050565b600060208284031215620001395762000138620000b6565b5b6000620001498482850162000109565b91505092915050565b60805160601c6110ee620001866000396000818161032301528181610572015281816105c201526107b801526110ee6000f3fe60806040526004361061007f5760003560e01c80639e87a5cd1161004e5780639e87a5cd14610135578063b60d428814610160578063be2693f01461016a578063d7b4750c146101745761008e565b80630343fb25146100985780633ccfd60b146100d55780636b69a592146100df578063893d20e81461010a5761008e565b3661008e5761008c6101b1565b005b6100966101b1565b005b3480156100a457600080fd5b506100bf60048036038101906100ba9190610a7c565b6102d9565b6040516100cc9190610ac2565b60405180910390f35b6100dd610321565b005b3480156100eb57600080fd5b506100f4610561565b6040516101019190610ac2565b60405180910390f35b34801561011657600080fd5b5061011f61056e565b60405161012c9190610aec565b60405180910390f35b34801561014157600080fd5b5061014a610596565b6040516101579190610b66565b60405180910390f35b6101686101b1565b005b6101726105c0565b005b34801561018057600080fd5b5061019b60048036038101906101969190610bad565b61084e565b6040516101a89190610aec565b60405180910390f35b6802b5e3af16b18800006101f0600260009054906101000a900473ffffffffffffffffffffffffffffffffffffffff163461089690919063ffffffff16565b1015610231576040517f08c379a000000000000000000000000000000000000000000000000000000000815260040161022890610c37565b60405180910390fd5b6001339080600181540180825580915050600190039060005260206000200160009091909190916101000a81548173ffffffffffffffffffffffffffffffffffffffff021916908373ffffffffffffffffffffffffffffffffffffffff160217905550346000803373ffffffffffffffffffffffffffffffffffffffff1673ffffffffffffffffffffffffffffffffffffffff16815260200190815260200160002081905550565b60008060008373ffffffffffffffffffffffffffffffffffffffff1673ffffffffffffffffffffffffffffffffffffffff168152602001908152602001600020549050919050565b7f000000000000000000000000000000000000000000000000000000000000000073ffffffffffffffffffffffffffffffffffffffff163373ffffffffffffffffffffffffffffffffffffffff16146103a6576040517f579610db00000000000000000000000000000000000000000000000000000000815260040160405180910390fd5b60005b600180549050811015610451576000600182815481106103cc576103cb610c57565b5b9060005260206000200160009054906101000a900473ffffffffffffffffffffffffffffffffffffffff16905060008060008373ffffffffffffffffffffffffffffffffffffffff1673ffffffffffffffffffffffffffffffffffffffff1681526020019081526020016000208190555050808061044990610cb5565b9150506103a9565b50600067ffffffffffffffff81111561046d5761046c610cfe565b5b60405190808252806020026020018201604052801561049b5781602001602082028036833780820191505090505b50600190805190602001906104b1929190610972565b5060003373ffffffffffffffffffffffffffffffffffffffff16476040516104d890610d5e565b60006040518083038185875af1925050503d8060008114610515576040519150601f19603f3d011682016040523d82523d6000602084013e61051a565b606091505b505090508061055e576040517f08c379a000000000000000000000000000000000000000000000000000000000815260040161055590610dbf565b60405180910390fd5b50565b6802b5e3af16b188000081565b60007f0000000000000000000000000000000000000000000000000000000000000000905090565b6000600260009054906101000a900473ffffffffffffffffffffffffffffffffffffffff16905090565b7f000000000000000000000000000000000000000000000000000000000000000073ffffffffffffffffffffffffffffffffffffffff163373ffffffffffffffffffffffffffffffffffffffff1614610645576040517f579610db00000000000000000000000000000000000000000000000000000000815260040160405180910390fd5b600060018054806020026020016040519081016040528092919081815260200182805480156106c957602002820191906000526020600020905b8160009054906101000a900473ffffffffffffffffffffffffffffffffffffffff1673ffffffffffffffffffffffffffffffffffffffff168152602001906001019080831161067f575b5050505050905060005b81518110156107535760008282815181106106f1576106f0610c57565b5b6020026020010151905060008060008373ffffffffffffffffffffffffffffffffffffffff1673ffffffffffffffffffffffffffffffffffffffff1681526020019081526020016000208190555050808061074b90610cb5565b9150506106d3565b50600067ffffffffffffffff81111561076f5761076e610cfe565b5b60405190808252806020026020018201604052801561079d5781602001602082028036833780820191505090505b50600190805190602001906107b3929190610972565b5060007f000000000000000000000000000000000000000000000000000000000000000073ffffffffffffffffffffffffffffffffffffffff16476040516107fa90610d5e565b60006040518083038185875af1925050503d8060008114610837576040519150601f19603f3d011682016040523d82523d6000602084013e61083c565b606091505b505090508061084a57600080fd5b5050565b60006001828154811061086457610863610c57565b5b9060005260206000200160009054906101000a900473ffffffffffffffffffffffffffffffffffffffff169050919050565b6000806108a2836108d2565b90506000670de0b6b3a764000085836108bb9190610ddf565b6108c59190610e68565b9050809250505092915050565b6000808273ffffffffffffffffffffffffffffffffffffffff1663feaf968c6040518163ffffffff1660e01b815260040160a06040518083038186803b15801561091b57600080fd5b505afa15801561092f573d6000803e3d6000fd5b505050506040513d601f19601f820116820180604052508101906109539190610f26565b5050509150506402540be4008161096a9190610fa1565b915050919050565b8280548282559060005260206000209081019282156109eb579160200282015b828111156109ea5782518260006101000a81548173ffffffffffffffffffffffffffffffffffffffff021916908373ffffffffffffffffffffffffffffffffffffffff16021790555091602001919060010190610992565b5b5090506109f891906109fc565b5090565b5b80821115610a155760008160009055506001016109fd565b5090565b600080fd5b600073ffffffffffffffffffffffffffffffffffffffff82169050919050565b6000610a4982610a1e565b9050919050565b610a5981610a3e565b8114610a6457600080fd5b50565b600081359050610a7681610a50565b92915050565b600060208284031215610a9257610a91610a19565b5b6000610aa084828501610a67565b91505092915050565b6000819050919050565b610abc81610aa9565b82525050565b6000602082019050610ad76000830184610ab3565b92915050565b610ae681610a3e565b82525050565b6000602082019050610b016000830184610add565b92915050565b6000819050919050565b6000610b2c610b27610b2284610a1e565b610b07565b610a1e565b9050919050565b6000610b3e82610b11565b9050919050565b6000610b5082610b33565b9050919050565b610b6081610b45565b82525050565b6000602082019050610b7b6000830184610b57565b92915050565b610b8a81610aa9565b8114610b9557600080fd5b50565b600081359050610ba781610b81565b92915050565b600060208284031215610bc357610bc2610a19565b5b6000610bd184828501610b98565b91505092915050565b600082825260208201905092915050565b7f4469646e27742073656e6420656e6f7567682045544800000000000000000000600082015250565b6000610c21601683610bda565b9150610c2c82610beb565b602082019050919050565b60006020820190508181036000830152610c5081610c14565b9050919050565b7f4e487b7100000000000000000000000000000000000000000000000000000000600052603260045260246000fd5b7f4e487b7100000000000000000000000000000000000000000000000000000000600052601160045260246000fd5b6000610cc082610aa9565b91507fffffffffffffffffffffffffffffffffffffffffffffffffffffffffffffffff821415610cf357610cf2610c86565b5b600182019050919050565b7f4e487b7100000000000000000000000000000000000000000000000000000000600052604160045260246000fd5b600081905092915050565b50565b6000610d48600083610d2d565b9150610d5382610d38565b600082019050919050565b6000610d6982610d3b565b9150819050919050565b7f43616c6c206661696c6564000000000000000000000000000000000000000000600082015250565b6000610da9600b83610bda565b9150610db482610d73565b602082019050919050565b60006020820190508181036000830152610dd881610d9c565b9050919050565b6000610dea82610aa9565b9150610df583610aa9565b9250817fffffffffffffffffffffffffffffffffffffffffffffffffffffffffffffffff0483118215151615610e2e57610e2d610c86565b5b828202905092915050565b7f4e487b7100000000000000000000000000000000000000000000000000000000600052601260045260246000fd5b6000610e7382610aa9565b9150610e7e83610aa9565b925082610e8e57610e8d610e39565b5b828204905092915050565b600069ffffffffffffffffffff82169050919050565b610eb881610e99565b8114610ec357600080fd5b50565b600081519050610ed581610eaf565b92915050565b6000819050919050565b610eee81610edb565b8114610ef957600080fd5b50565b600081519050610f0b81610ee5565b92915050565b600081519050610f2081610b81565b92915050565b600080600080600060a08688031215610f4257610f41610a19565b5b6000610f5088828901610ec6565b9550506020610f6188828901610efc565b9450506040610f7288828901610f11565b9350506060610f8388828901610f11565b9250506080610f9488828901610ec6565b9150509295509295909350565b6000610fac82610edb565b9150610fb783610edb565b9250827f7fffffffffffffffffffffffffffffffffffffffffffffffffffffffffffffff0482116000841360008413161615610ff657610ff5610c86565b5b817f8000000000000000000000000000000000000000000000000000000000000000058312600084126000841316161561103357611032610c86565b5b827f800000000000000000000000000000000000000000000000000000000000000005821260008413600084121616156110705761106f610c86565b5b827f7fffffffffffffffffffffffffffffffffffffffffffffffffffffffffffffff05821260008412600084121616156110ad576110ac610c86565b5b82820290509291505056fea2646970667358221220b9f5a75f3086ade7ade2f5919301f94c74dddbb8409fb76e6371d78ce5ae3bad64736f6c63430008080033",
  "devdoc": {
    "author": "Boston Strong",
    "details": "This implements price feeds as the library",
    "kind": "dev",
    "methods": {},
    "title": "A contract for crowd funding",
    "version": 1
  },
  "userdoc": {
    "kind": "user",
    "methods": {},
    "notice": "This contract is to demo a sample funding contract",
    "version": 1
  },
  "storageLayout": {
    "storage": [
      {
        "astId": 59,
        "contract": "contracts/FundMe.sol:FundMe",
        "label": "s_addressToAmountFunded",
        "offset": 0,
        "slot": "0",
        "type": "t_mapping(t_address,t_uint256)"
      },
      {
        "astId": 62,
        "contract": "contracts/FundMe.sol:FundMe",
        "label": "s_funders",
        "offset": 0,
        "slot": "1",
        "type": "t_array(t_address)dyn_storage"
      },
      {
        "astId": 74,
        "contract": "contracts/FundMe.sol:FundMe",
        "label": "s_priceFeed",
        "offset": 0,
        "slot": "2",
        "type": "t_contract(AggregatorV3Interface)45"
      }
    ],
    "types": {
      "t_address": {
        "encoding": "inplace",
        "label": "address",
        "numberOfBytes": "20"
      },
      "t_array(t_address)dyn_storage": {
        "base": "t_address",
        "encoding": "dynamic_array",
        "label": "address[]",
        "numberOfBytes": "32"
      },
      "t_contract(AggregatorV3Interface)45": {
        "encoding": "inplace",
        "label": "contract AggregatorV3Interface",
        "numberOfBytes": "20"
      },
      "t_mapping(t_address,t_uint256)": {
        "encoding": "mapping",
        "key": "t_address",
        "label": "mapping(address => uint256)",
        "numberOfBytes": "32",
        "value": "t_uint256"
      },
      "t_uint256": {
        "encoding": "inplace",
        "label": "uint256",
        "numberOfBytes": "32"
      }
    }
  }
}